:100000000C946C000C9494000C9494000C94940048
:100010000C9494000C9494000C9494000C94940010
:100020000C9494000C9494000C9494000C94940000
:100030000C9494000C9466040C9494000C9494001A
:100040000C941C040C9494000C9494000C94940054
:100050000C9494000C9494000C9494000C949400D0
:100060000C9494000C94940005A84CCDB2D44EB9D5
:100070003836A9020C50B9918688083CA6AAAA2A4B
:10008000BE000000803F00000000240027002A007E
:1000900000000000250028002B00040404040404D0
:1000A0000404020202020202030303030303010227
:1000B00004081020408001020408102001020408F6
:1000C00010200000000800020100000304070000E7
:1000D0000000000000008E0611241FBECFEFD8E004
:1000E000DEBFCDBF11E0A0E0B1E0E8EFF2E102C079
:1000F00005900D92AE31B107D9F724E0AEE1B1E041
:1001000001C01D92A037B207E1F710E0CCE6D0E0C5
:1001100004C02197FE010E946F09CB36D107C9F7B1
:100120000E948D040C947A090C94000090E0FC016C
:10013000EE53FF4F2491FC01E255FF4F3491FC0137
:10014000E656FF4FE491EE2309F43CC0222339F137
:10015000233091F038F42130A9F0223001F584B534
:100160008F7D12C0273091F02830A1F02430B9F4EF
:10017000809180008F7D03C0809180008F77809375
:1001800080000DC084B58F7784BD09C08091B00018
:100190008F7703C08091B0008F7D8093B000F0E036
:1001A000EE0FFF1FE057FF4FA591B4919FB7F89452
:1001B000611104C08C913095382302C0EC913E2B24
:1001C0003C939FBF0895CF93DF9390E0FC01E255ED
:1001D000FF4F2491FC01E656FF4F8491882361F183
:1001E00090E0880F991FFC01EA57FF4FC591D49109
:1001F000FC01E057FF4FA591B491611109C09FB771
:10020000F8948881209582238883EC912E230BC05B
:10021000623061F49FB7F8948881322F3095832340
:100220008883EC912E2B2C939FBF06C08FB7F89438
:10023000E8812E2B28838FBFDF91CF9108958E30D8
:1002400008F08E508770806480937C0080917A00E3
:10025000806480937A0080917A0086FDFCCF809143
:1002600078002091790090E0922B08953FB7F894A0
:100270008091540490915504A0915604B091570474
:1002800026B5A89B05C02F3F19F00196A11DB11DF1
:100290003FBFBA2FA92F982F8827820F911DA11D2C
:1002A000B11DBC01CD0142E0660F771F881F991F69
:1002B0004A95D1F70895CF92DF92EF92FF920F9374
:1002C0001F93CF93DF936C017A018B01C0E0D0E0E4
:1002D000CE15DF0581F0D8016D918D01D601ED912C
:1002E000FC910190F081E02DC6010995892B11F058
:1002F0002196EECF7E01C701DF91CF911F910F9123
:10030000FF90EF90DF90CF900895CF93DF93EC01B3
:1003100060E08E810E94960061E08E810E949600CE
:1003200060E08E810E9496008BE891E00197F1F7E2
:10033000DF91CF910895CF92DF92EF92FF920F93CA
:100340001F93CF93DF936C017C0187E0E80EF11CD3
:10035000C0E0D0E0062F10E0B8010C2E02C0759569
:1003600067950A94E2F76170F70181917F010E941D
:1003700096002196C430D10579F7C601DF91CF915F
:100380001F910F91FF90EF90DF90CF900C9485011B
:10039000CF92DF92EF92FF920F931F93CF93DF9351
:1003A000EC01F62E642F8C810E9496008D818F3F88
:1003B00019F060E00E9496008F850F2D10E084FFF9
:1003C00025C06E0187E0C80ED11CE12CF12CB801CC
:1003D0000E2C02C0759567950A94E2F76170F601DC
:1003E00081916F010E949600FFEFEF1AFF0A88E0EB
:1003F000E816F10461F7CE01DF91CF911F910F91C3
:10040000FF90EF90DF90CF900C948501B80184E0CD
:10041000759567958A95E1F7CE010E949B016F2D36
:10042000CE01DF91CF911F910F91FF90EF90DF9060
:10043000CF900C949B0140E0682F88E594E00C94E9
:10044000C801CF93DF93823028F0909167049860C1
:100450009093670480936B0410926C0480E4809303
:100460006D0480E180936E0480E580936F0461E009
:1004700080915C040E94E30080915D048F3F19F03D
:1004800061E00E94E30061E080915E040E94E3006D
:10049000C8E5D4E09E01285534408091670484FD6E
:1004A00003C084E090E002C088E090E02196281725
:1004B00039072CF461E08E810E94E300EBCF8BE3DF
:1004C0009DE00197F1F760E080915C040E94960046
:1004D00060E080915E040E94960080915D048F3FF1
:1004E00019F060E00E9496008091670484FD20C0AE
:1004F00063E088E594E00E949B01CBE4D6E4CE0162
:100500000197F1F763E088E594E00E949B01219751
:10051000F1F763E088E594E00E949B0183E592E0B7
:100520000197F1F762E088E594E00E949B0115C015
:1005300080620E941B028BE496E40197F1F78091A0
:10054000670480620E941B0283E592E00197F1F745
:100550008091670480620E941B0280916704806220
:100560000E941B0284E0809368048CE00E941B02BE
:1005700081E00E941B028BE39FE10197F1F782E08B
:100580008093690486E0DF91CF910C941B0241E0D7
:100590000E94C80181E090E00895089580E090E015
:1005A0000895CF92DF92EF92FF92CF93DF938091E5
:1005B00047049091480420914004309141048217EF
:1005C000930784F420911E0130911F01232B51F4D5
:1005D00021E030E030931F0120931E01309341044D
:1005E00020934004209140043091410482179307E6
:1005F0007CF480911E0190911F018130910541F49E
:1006000010921F0110921E019093410480934004A8
:10061000809140049091410401969093410480930D
:10062000400420911E0130911F01232B09F04FC07F
:10063000880F991F880F991FEC01C05EDE4F6091F3
:10064000490470914A04072E000C880B990B0E94F4
:100650004F07288139814A815B810E94DB070E9414
:100660001E076B017C0161E089E00E94E30080913C
:10067000800080688093800020914404309145047C
:10068000D6010E946009DC01CB014AE0B695A7952E
:10069000979587954A95D1F7909389008093880024
:1006A0008091460480618093810061E08AE00E942D
:1006B000E3008091800080628093800010928B0024
:1006C00010928A008091460480618093810080911D
:1006D0001E0190911F01019709F052C061E089E06D
:1006E0000E94E300809180008068809380001092D7
:1006F0008900109288008091460480618093810077
:10070000C0914004D0914104CC0FDD1FCC0FDD1F00
:10071000C05EDE4F6091490470914A04072E000CC0
:10072000880B990B0E944F07288139814A815B8190
:100730000E94DB070E941E076B017C0161E08AE0DA
:100740000E94E3008091800080628093800020916D
:10075000440430914504D6010E946009DC01CB01BC
:100760002AE0B695A795979587952A95D1F7909306
:100770008B0080938A008091460480618093810081
:10078000DF91CF91FF90EF90DF90CF900895009789
:1007900069F0FC0101900020E9F73197AF01481B97
:1007A000590BBC0188E594E00C945B0180E090E07B
:1007B00008958F929F92AF92BF920F931F93CF9302
:1007C000DF93CDB7DEB7A1970FB6F894DEBF0FBEAB
:1007D000CDBF19A2423008F44AE08E010F5D1F4FD1
:1007E000842E912CA12CB12CA50194010E943E09CC
:1007F000E62FB901CA0101501109EA3014F4E05D95
:1008000001C0E95CD801EC93232B242B252B61F745
:10081000C8010E94C703A1960FB6F894DEBF0FBEB1
:10082000CDBFDF91CF911F910F91BF90AF909F905F
:100830008F9008950E9475091F920F920FB60F9224
:1008400011242F933F938F939F93AF93BF938091E6
:10085000500490915104A0915204B09153043091EE
:100860004F0423E0230F2D3720F40196A11DB11D65
:1008700005C026E8230F0296A11DB11D20934F0449
:100880008093500490935104A0935204B093530466
:100890008091540490915504A0915604B09157044E
:1008A0000196A11DB11D8093540490935504A0930B
:1008B0005604B0935704BF91AF919F918F913F9190
:1008C0002F910F900FBE0F901F9018951F920F92AF
:1008D0000FB60F9211242F933F934F935F936F9313
:1008E0007F938F939F93AF93BF93EF93FF93E09189
:1008F0004204F09143040995FF91EF91BF91AF91AC
:100900009F918F917F916F915F914F913F912F9127
:100910000F900FBE0F901F901895789484B5826049
:1009200084BD84B5816084BD85B5826085BD85B593
:10093000816085BD80916E00816080936E00109211
:10094000810080918100826080938100809181008C
:10095000816080938100809180008160809380001D
:100960008091B10084608093B1008091B00081607B
:100970008093B00080917A00846080937A008091A7
:100980007A00826080937A0080917A0081608093FF
:100990007A0080917A00806880937A001092C1007A
:1009A00082E00E94210281E00E941B028BE39FE112
:1009B0000197F1F788EC90E0909348048093470406
:1009C0000E9436014B015C0158EEC52E53E0D52E36
:1009D000E12CF12C0E943601DC01CB018819990928
:1009E000AA09BB09883E9340A105B10598F321E00F
:1009F000C21AD108E108F10888EE880E83E0981E3B
:100A0000A11CB11CC114D104E104F10419F760E088
:100A10008EE00E94E30060E08FE00E94E30060E06F
:100A200080E10E94E30061E08DE00E94E30010920B
:100A30004A041092490480E1809381001092800062
:100A400081E08093460420E931E03093450420930F
:100A50004404309387002093860091E190938100B5
:100A600021ED32E0309343042093420480936F00E1
:100A7000C0914004D0914104CC0FDD1FCC0FDD1F8D
:100A8000C05EDE4F6091490470914A04072E000C4D
:100A9000880B990B0E944F07288139814A815B811D
:100AA0000E94DB070E941E076B017C0161E089E068
:100AB0000E94E300809180008068809380002091F4
:100AC000440430914504D6010E946009DC01CB0149
:100AD0002AE0B695A795979587952A95D1F7909393
:100AE0008900809388008091460480618093810012
:100AF000C0914004D0914104CC0FDD1FCC0FDD1F0D
:100B0000C05EDE4F6091490470914A04072E000CCC
:100B1000880B990B0E944F07288139814A815B819C
:100B20000E94DB070E941E076B017C0161E08AE0E6
:100B30000E94E30080918000806280938000209179
:100B4000440430914504D6010E946009DC01CB01C8
:100B50004AE0B695A795979587954A95D1F79093D2
:100B60008B0080938A00809146048061809381008D
:100B700000E211E0C0E0D0E06091470470914804C9
:100B8000C617D7070CF077C0072E000C880B990BFF
:100B90000E944F079B01AC0160E070E084E393E4A6
:100BA0000E94AC066B017C01BE010D2E000C880B6F
:100BB000990B0E944F079B01AC01C701B6010E942F
:100BC000DB0723EC35EF48E450E40E94DB0720E02C
:100BD00030E044E353E40E94AC060E944808F80168
:100BE00061937193819391938F018EE00E941F0115
:100BF00090934C0480934B048FE00E941F0180E18E
:100C00000E941F0190934E0480934D04E1E0809177
:100C10006B048111E0E0E195F0E0E85AFB4F848934
:100C20008F5F80680E941B028CE091E00E94C703E6
:100C30004AE06EE070E080E090E00E94D903E0912D
:100C40006B04E23010F4E15001C0E1E0F0E0E85A5A
:100C5000FB4F84898F5F80680E941B0285E191E0D1
:100C60000E94C7034AE06FE070E080E090E00E94DD
:100C7000D903219681CFC0E0D0E020914D0430917E
:100C80004E0480914B0490914C0428173907ACF521
:100C90008091490490914A048438F3E09F072CF432
:100CA000019690934A04809349048EE00E941F01AC
:100CB00090934C0480934B0480E10E941F01909319
:100CC0004E0480934D04D9CF8091490490914A04F9
:100CD000009729F0019790934A04809349048EE08D
:100CE0000E941F0190934C0480934B0480E10E946A
:100CF0001F0190934E0480934D0420914D04309138
:100D00004E0480914B0490914C0482179307E4F2B7
:100D1000209709F4B2CF0E940000AFCFE8E5F4E0DD
:100D20001382128284E091E0918380838DE084833A
:100D30008FEF85838CE086838BE0878388E08087D4
:100D400086E0818785E0828713861486158616865D
:100D5000178681E00C9421020E94C0060C94A10722
:100D60000E949A0758F00E94930740F029F45F3FD1
:100D700029F00C948A0751110C94D5070C94900714
:100D80000E94B20768F39923B1F3552391F3951BA1
:100D9000550BBB27AA2762177307840738F09F5F9C
:100DA0005F4F220F331F441FAA1FA9F335D00E2E09
:100DB0003AF0E0E832D091505040E695001CCAF776
:100DC0002BD0FE2F29D0660F771F881FBB1F261739
:100DD00037074807AB07B0E809F0BB0B802DBF0110
:100DE000FF2793585F4F3AF09E3F510578F00C94DF
:100DF0008A070C94D5075F3FE4F3983ED4F38695B9
:100E000077956795B795F7959F5FC9F7880F911DFF
:100E10009695879597F90895E1E0660F771F881FEB
:100E2000BB1F621773078407BA0720F0621B730B9E
:100E3000840BBA0BEE1F88F7E09508950E94BA075D
:100E400088F09F5798F0B92F9927B751B0F0E1F08B
:100E5000660F771F881F991F1AF0BA95C9F714C03B
:100E6000B13091F00E94D407B1E008950C94D407FA
:100E7000672F782F8827B85F39F0B93FCCF3869574
:100E800077956795B395D9F73EF4909580957095D1
:100E900061957F4F8F4F9F4F0895E89409C097FB4E
:100EA0003EF490958095709561957F4F8F4F9F4F41
:100EB0009923A9F0F92F96E9BB279395F695879585
:100EC00077956795B795F111F8CFFAF4BB0F11F448
:100ED00060FF1BC06F5F7F4F8F4F9F4F16C08823EF
:100EE00011F096E911C0772321F09EE8872F762F25
:100EF00005C0662371F096E8862F70E060E02AF066
:100F00009A95660F771F881FDAF7880F9695879551
:100F100097F9089597F99F6780E870E060E0089579
:100F20009FEF80EC089500240A9416161706180601
:100F30000906089500240A941216130614060506DD
:100F40000895092E0394000C11F4882352F0BB0F6E
:100F500040F4BF2B11F460FF04C06F5F7F4F8F4FD1
:100F60009F4F089557FD9058440F551F59F05F3F0C
:100F700071F04795880F97FB991F61F09F3F79F0BB
:100F800087950895121613061406551FF2CF46953D
:100F9000F1DF08C0161617061806991FF1CF8695BF
:100FA0007105610508940895E894BB2766277727A3
:100FB000CB0197F908950E94EE070C94A1070E94B7
:100FC000930738F00E949A0720F0952311F00C94B3
:100FD0008A070C94900711240C94D5070E94B2073D
:100FE00070F3959FC1F3950F50E0551F629FF0017C
:100FF000729FBB27F00DB11D639FAA27F00DB11D95
:10100000AA1F649F6627B00DA11D661F829F22271D
:10101000B00DA11D621F739FB00DA11D621F839FA4
:10102000A00D611D221F749F3327A00D611D231F7A
:10103000849F600D211D822F762F6A2F11249F57C8
:1010400050409AF0F1F088234AF0EE0FFF1FBB1FCB
:10105000661F771F881F91505040A9F79E3F51058A
:1010600080F00C948A070C94D5075F3FE4F3983E18
:10107000D4F3869577956795B795F795E7959F5F34
:10108000C1F7FE2B880F911D9695879597F90895C6
:101090009F930E9452080F9007FCEE5F0C947B0810
:1010A0000C9490070E94BA07D8F3E894E0E0BB27BD
:1010B0009F57F0F02AED3FE049EC06C0EE0FBB0F62
:1010C000661F771F881F28F0B23A620773078407EC
:1010D00028F0B25A620B730B840BE3959A9572F762
:1010E000803830F49A95BB0F661F771F881FD2F7A0
:1010F00090480C94F708EF93E0FF07C0A2EA2AEDAE
:101100003FE049EC5FEB0E94A0080E94A1070F900E
:10111000039401FC9058E8E6F0E00C9403090E9467
:10112000930738F00E949A0720F039F49F3F19F492
:1011300026F40C9490070EF4E095E7FB0C948A07D4
:10114000E92F0E94B20758F3BA17620773078407A2
:10115000950720F079F4A6F50C94D4070EF4E095E9
:101160000B2EBA2FA02D0B01B90190010C01CA0161
:10117000A0011124FF27591B99F0593F50F4503E0C
:1011800068F11A16F040A22F232F342F4427585FFE
:10119000F3CF469537952795A795F0405395C9F716
:1011A0007EF41F16BA0B620B730B840BBAF09150CE
:1011B000A1F0FF0FBB1F661F771F881FC2F70EC06D
:1011C000BA0F621F731F841F48F487957795679540
:1011D000B795F7959E3F08F0B0CF9395880F08F02C
:1011E0009927EE0F9795879508959F3F31F091507D
:1011F00020F4879577956795B795880F911D9695FB
:10120000879597F908959F938F937F936F93FF939B
:10121000EF939B01AC010E94DB07EF91FF910E94CD
:1012200017092F913F914F915F910C94DB07DF934A
:10123000CF931F930F93FF92EF92DF927B018C016C
:10124000689406C0DA2EEF010E94EE07FE01E894D2
:10125000A5912591359145915591A6F3EF010E94F5
:10126000A008FE019701A801DA9469F7DF90EF90DA
:10127000FF900F911F91CF91DF910895A1E21A2E57
:10128000AA1BBB1BFD010DC0AA1FBB1FEE1FFF1F2A
:10129000A217B307E407F50720F0A21BB30BE40B7A
:1012A000F50B661F771F881F991F1A9469F76095C1
:1012B0007095809590959B01AC01BD01CF0108957B
:1012C000A29FB001B39FC001A39F700D811D112487
:1012D000911DB29F700D811D1124911D0895EE0F77
:1012E000FF1F0590F491E02D099481E090E0F894BF
:0812F0000C947A09F894FFCF79
:1012F80000000000C7025B01CE02CD0261646A5F94
:0E13080076203D200061646A5F66203D200073
:00000001FF
